:020000040800F2
:10000000180C002029020008B3200008D1190008AC
:10001000B12000081F040008A1270008000000000C
:10002000000000000000000000000000BB200008ED
:100030002104000800000000B9200008BD200008CD
:10004000430200084302000843020008430200087C
:10005000430200084302000843020008430200086C
:10006000430200084302000843020008430200085C
:10007000430200084302000843020008430200084C
:10008000430200084302000843020008430200083C
:10009000430200084302000843020008430200082C
:1000A00065210008992100088D21000881210008A0
:1000B000A5210008B1210008BD2100084302000865
:1000C00043020008430200084302000843020008FC
:1000D000430200087D2700088927000895270008AB
:1000E00043020008430200084302000843020008DC
:1000F00043020008430200084302000843020008CC
:100100004302000843020008C92100084302000816
:1001100043020008430200084302000843020008AB
:10012000430200084302000843020008430200089B
:10013000430200084302000843020008430200088B
:10014000430200084302000843020008430200087B
:10015000430200084302000843020008430200086B
:10016000430200084302000843020008430200085B
:100170004302000843020008430200080000000098
:10018000430200084302000800F002F800F03CF8C7
:100190000AA090E8000C82448344AAF10107DA45E2
:1001A00001D100F031F8AFF2090EBAE80F0013F0F8
:1001B000010F18BFFB1A43F0010318472027000066
:1001C00040270000103A24BF78C878C1FAD85207F7
:1001D00024BF30C830C144BF04680C6070470000C1
:1001E0000023002400250026103A28BF78C1FBD840
:1001F000520728BF30C148BF0B6070471FB502F0DF
:100200005BFB1FBD10B510BD00F0CFF81146FFF726
:10021000F5FF02F009FB00F0EDF803B4FFF7F2FF81
:1002200003BC00F0F5F80000094880470948004782
:10023000FEE7FEE7FEE7FEE7FEE7FEE7FEE7FEE796
:10024000FEE7FEE704480549054A064B70470000F3
:10025000552100088901000818060020180C00200C
:10026000180800201808002053EA020C00F06980EA
:100270002DE9F04B4FF00006002B1FBFB3FA83F5BA
:1002800003FA05F424FA05F65E4012BF1643B2FAEB
:1002900082F502FA05F4C5F120051EBF22FA05FC1D
:1002A00044EA0C04203556EA044C4FEA144418BFC3
:1002B000641C4FF000084FF00009904271EB030CF2
:1002C00039D3002919BFB1FA81F701FA07F6B0FA5C
:1002D00080F700FA07F6C7F120071EBF20FA07FCD7
:1002E00046EA0C062037B6FBF4FCA7EB0507103FE7
:1002F00007F01F0BCBF120060CFA0BFB2CFA06F6CD
:1003000044BFB3460026202FA4BF5E464FF0000B2B
:100310005BEA060C08BF4FF0010B19EB0B09ABFBB6
:10032000027C48EB0608C01B06FB02CC0BFB03CC8F
:1003300071EB0C01C1E70B46024641464846BDE859
:10034000F08B13B54FF000004FF00001AFF30080C9
:10035000BDE81C4070474FF0000200B513469446BC
:100360009646203922BFA0E80C50A0E80C50B1F10D
:100370002001BFF4F7AF090728BFA0E80C5048BF21
:100380000CC05DF804EB890028BF40F8042B08BFBF
:10039000704748BF20F8022B11F0804F18BF00F8BB
:1003A000012B7047704770477047754600F02CF876
:1003B000AE4605006946534620F00700854618B052
:1003C00020B5FFF73FFFBDE820404FF000064FF09B
:1003D00000074FF000084FF0000B21F00701AC467A
:1003E000ACE8C009ACE8C009ACE8C009ACE8C00999
:1003F0008D46704710B50446AFF300802046BDE837
:100400001040FFF70ABF000000487047B805002001
:1004100001491820ABBEFEE7260002007047FEE748
:10042000704772B6FEE72DE9F0410446876D00F093
:1004300057F9064694F835000025022806D080209A
:10044000606584F834500120BDE8F08120680168BF
:1004500021F0160101602068416921F080014161AD
:10046000206C08B9A06C20B12068016821F0080157
:1004700001602068016821F0010101600CE000F0DA
:100480002FF9801B052807D920206065032084F8F8
:10049000350084F83450D7E720680068C007EED1F3
:1004A00094F85C103F208840B860012084F8350043
:1004B00084F834500020C7E790F83510022903D0A3
:1004C0008021416501207047052180F835100068C2
:1004D000016821F001010160002070472DE9F84F0B
:1004E000DFF8BCA10022012503264FF00F090AF115
:1004F000040BAAF1040E00BF0B6805FA02F42340B6
:10050000A34270D10F7907F00307012F01D0022F0A
:1005100016D187684FEA420806FA08FC27EA0C075A
:10052000D1F80CC00CFA08FC4CEA070CC0F808C063
:100530004768A7430C79C4F3001494403C434460DB
:100540000C79E443A4070AD0C4684FEA420C06FAC7
:100550000CF7BC438F6807FA0CF72743C7600C7988
:1005600004F00304022C12D1D40800EB840CDCF854
:1005700020405707FF0E09FA07F824EA0804D1F8CB
:10058000108008FA07F848EA0408CCF820800468CC
:100590004FEA420C06FA0CF7BC430F7907F0030749
:1005A00007FA0CF7274307604C6814F4403F70D0FB
:1005B0003C4C276847F480472760246822F00307F3
:1005C00004F480440094384C07EB040CDCF8084831
:1005D00097074FEA177809FA08F7BC43334FB84238
:1005E00002D1002724E054E0314FB84201D1012765
:1005F0001EE0304FB84201D1022719E02E4FB84219
:1006000001D1032714E02D4FB84201D104270FE098
:100610002B4FB84201D105270AE02A4FB84201D139
:10062000062705E0284FB84201D1072700E0082738
:1006300007FA08F72743CCF80878DAF8004057465D
:10064000D1F804C09C435FEACC2C00D51C433C602D
:10065000DBF800405F46D1F804C09C435FEA8C2C75
:1006600000D51C433C60DEF800407746D1F804C05A
:100670009C435FEA8C3C00D51C433C60084F083F1C
:100680003C68D1F804C09C435FEACC3C00D51C43D5
:100690003C60521C102AFFF42FAFBDE8F88F000019
:1006A000083C014044380240003001400000024054
:1006B0000004024000080240000C0240001002400A
:1006C0000014024000180240001C0240006908406B
:1006D00000D0012070470AB1816170470904FBE72F
:1006E00001488068704700000000002002488168CF
:1006F0000278114481607047000000200B4810B55B
:10070000016841F400710160016841F48061016099
:10071000016841F480710160032000F06FF80F2040
:1007200000F006F800F024F8002010BD003C024064
:1007300070B50D4D04464FF47A712878B1FBF0F096
:100740000A490968B1FBF0F000F02CFB48B9102C05
:1007500007D200222146501E00F030F800206C60C5
:1007600070BD012070BD0000000000200C000020C2
:100770000A4808B5016841F480410160006800F44E
:10078000804000900548001F016841F080510160E1
:10079000006800F08050009008BD0000443802401E
:1007A000002809DB00F01F02012191404009800070
:1007B00000F1E020C0F8001170470000F0B40E4BCB
:1007C0001B680C46C3F30223C3F10705042D00D9AF
:1007D0000425191D072901D2002300E0DB1E012694
:1007E00006FA05F1491E214099409E40761E1640AA
:1007F0003143F0BC01F0D5BF0CED00E0064900F03C
:10080000070208684FF6FF03184040EA0220034A37
:1008100010430860704700000CED00E00000FA058E
:10082000704700002DE9F0470E46050065D0DFF85F
:100830001481D8F80000F7B200F00700B04207D2E8
:1008400088F80070D8F8000000F00700B04254D1DA
:1008500028683D4C810712D5400703D5206840F435
:10086000E05020602878000703D5206840F46040FD
:1008700020602068A96820F0F000084320602878F4
:10088000C0072DD0304968680839012812D00228E5
:1008900013D0032811D00968890700292DDA2168AF
:1008A00021F0030101432160FFF71AFF814641F265
:1008B000883A0EE009688903EFE709688901ECE7E7
:1008C000FFF70EFFA0EB0901514502D90320BDE857
:1008D000F0872068696800F00C00B0EB810FEFD161
:1008E000D8F80010404601F00701B14207D907705F
:1008F000006800F00700B04201D00120E7E7287847
:10090000400705D52068E96820F4E05008432060DE
:100910002878000706D52068296920F4604040EA5D
:10092000C100206000F03EF82168084AC1F30311BD
:10093000515CC8400649086006480068FFF7F8FEA9
:100940000020C4E7003C024008380240C2280008EA
:100950000C0000200400002001490120C8647047F9
:10096000000047420448054900680968044AC1F389
:100970008221515CC84070470C00002008380240BA
:10098000D22800080448054900680968044AC1F3F0
:100990004231515CC84070470C00002008380240CA
:1009A000D2280008154810B5006810F00C02144851
:1009B00013D04110042A0FD0082A0ED10F4C241F47
:1009C0002268236802F03F025B0207D52068C0F36B
:1009D0008810A0FB010106E0084610BD2168C1F3A4
:1009E0008811A1FB00010023FFF73EFC2168C1F341
:1009F0000141491C4900B0FBF1F010BD083802402C
:100A00000024F400054810B50068000605D5FFF77E
:100A100007FF02498020891C087010BD0C38024075
:100A20002DE9F84F04006ED02078DFF84C93C00712
:100A3000A9F104054AD009F104000168C1F381015C
:100A4000012908D00068C0F3810002280AD1D9F832
:100A50000000400206D52868800337D5606800286A
:100A6000E1D033E06068B0F5803F10D0B0F5A02F42
:100A7000286810D020F480302860286820F4802076
:100A800028606068A8B1FFF72BFE06460DE02868D5
:100A900040F48030F4E740F480202860F7E700BF9E
:100AA000FFF71EFE801B642873D828688003F7D5E3
:100AB0000CE0FFF715FE064605E000BFFFF710FE4D
:100AC000801B6428F0D828688003F7D42078DFF8EA
:100AD000AC8280074FF0000A3ED5A748001D016890
:100AE00011F00C0F08D00068C0F3810002280BD170
:100AF000D9F80000400207D42868800716D5E068BE
:100B0000012800D112E033E1E068B8B10120C8F853
:100B10000000FFF7E5FD064605E000BFFFF7E0FD3A
:100B2000801B0228C0D828688007F7D5286821696B
:100B300020F0F80040EAC10028600DE0C8F800A0ED
:100B4000FFF7CEFD064604E0FFF7CAFD801B022832
:100B50001FD828688007F7D42078000722D5864F51
:100B600087486169703771B101210160FFF7B8FDF5
:100B7000064604E0FFF7B4FD801B022809D8386858
:100B80008007F7D50EE0C0F800A0FFF7A9FD0646E4
:100B900005E082E0FFF7A4FD801B02287DD83868BD
:100BA0008007F7D42078400768D5DFF8CCB100275C
:100BB0000BF13C0BDBF80000C0000BD4DBF800109D
:100BC00041F08051CBF80010DBF80000012700F065
:100BD000805000906B4E3068C00510D4306840F4EF
:100BE00080703060FFF77CFD009005E0FFF778FD36
:100BF0000099401A022850D83068C005F6D55E4EDC
:100C0000A0686C3601280FD00528306810D020F07D
:100C100001003060306820F004003060A068B8B196
:100C2000FFF75EFD00900FE0306840F00100F4E750
:100C300040F004003060F7E7FFF752FD0099411AD9
:100C400041F28830814266D830688007F4D50EE0E2
:100C5000FFF746FD009007E0FFF742FD0099411ABB
:100C600041F28830814256D830688007F4D42FB1E1
:100C7000DBF8001021F08051CBF80010A069C8B358
:100C80003D49091D0968C1F3810102294AD00228A2
:100C9000504607D0C8F8600000E03CE0FFF720FDB8
:100CA00004463BE04746C8F86000FFF719FD0646DA
:100CB00005E000BFFFF714FD801B02282BD8286831
:100CC0008001F7D4D4E907010843A16A2E4A4908F4
:100CD00002EB0141626A41EA8211084394F82C1048
:100CE00040EA0161C9F8001001203866FFF7F8FCFE
:100CF000044606E03EE000BFFFF7F2FC001B0228BE
:100D000009D828688001F7D534E000BFFFF7E8FC78
:100D1000001B022802D90320BDE8F88F2868800153
:100D2000F4D427E00128F7D0D9F80000E26900F4F4
:100D3000800191421CD1226A00F03F01914217D1FB
:100D400047F6C071626A0140B1EB821F10D1A26AFE
:100D50004FF0FF3300F4403103EB5202B1EB024F8E
:100D600006D194F82C1000F07060B0EB016F01D048
:100D70000120D1E70020CFE70438024000004742BD
:100D8000800E4742007000400000FFFF4FF0E0215E
:100D90000428086903D020F004000861704740F07F
:100DA0000400FAE710B5401EB0F1807F01D30120A6
:100DB00010BD4FF0E02460610F21601701F0F1FCDD
:100DC0000020A06107202061002010BD70477047FF
:100DD000704710B590F83C20012A22D0012280F8FB
:100DE0003C20CA688C6822F4407222434C6822F48A
:100DF000806222430C6822F4006222430C6922F4D0
:100E0000805222434C6922F400522243C9690023D4
:100E100022F480420A4301684A6480F83C30002092
:100E200010BD022010BD000070B590F83C20012AD2
:100E300032D0012480F83C40022280F83D20036833
:100E40005A689D6822F070060A6832435A60134B54
:100E500002689A4214D0B2F1804F11D0104B9A42DE
:100E60000ED0104B9A420BD00F4B9A4208D00F4B2A
:100E70009A4205D00E4B9A4202D00E4B9A4204D1B0
:100E8000496825F080031943916080F83D400021B6
:100E900080F83C10084670BD022070BD0000014083
:100EA0000004004000080040000C00400004014025
:100EB000004001400018004010B5040003D094F831
:100EC0003D0010B10EE0012010BD002084F83C0070
:100ED000204601F0BFFAA06C08B91148A064014691
:100EE00020468847022084F83D00211D206801F03B
:100EF00071F9012084F8460084F83E0084F83F0030
:100F000084F8400084F8410084F8420084F84300EB
:100F100084F8440084F8450084F83D00002010BDAA
:100F2000250F000808B5026845484649824226D187
:100F3000086840F0010008600868002200F0010025
:100F4000009011461820FFF739FC1820FFF728FC05
:100F5000002211461920FFF731FC1920FFF720FC71
:100F6000002211461A20FFF729FC1A20FFF718FC6F
:100F7000002211461B20FFF721FC1B205AE03148BC
:100F8000001FB2F1804F11D02F4B9A421DD1016842
:100F900041F0020101600068002200F002000090B0
:100FA00011461D20FFF70AFC1D2043E0016841F0B7
:100FB000010101600068002200F00100009011466C
:100FC0001C20FFF7FBFB1C2034E0204B9A420ED183
:100FD000016841F0040101600068002200F0040093
:100FE000009011461E20FFF7E9FB1E2022E0184B5F
:100FF0009A420ED1016841F00801016000680022A8
:1010000000F00800009011463220FFF7D7FB322095
:1010100010E01048824211D1086840F48030086026
:101020000868002200F48030009011461820FFF775
:10103000C5FB1820BDE80840FFF7B2BB08BD0000A3
:101040000000014044380240000400400008004015
:10105000000C00400040014070B5044690F83C0090
:101060000025012817D0012684F83C60022084F86E
:101070003D002068826822F0770222F47F4282607D
:101080000868502838D00DDC20284FD005DC90B3FC
:10109000102811D14AE0022070BD302846D04028E7
:1010A0000AD13BE060282FD070280DD0B0F5805FCA
:1010B00003D0B0F5005F12D0012584F83D60002018
:1010C00084F83C00284670BDCB68D1E90121206836
:1010D00001F0ECF82068816841F0770109E0CB6805
:1010E000D1E90121206801F0E1F82068816841F42C
:1010F00080418160E1E719E0CA684968206801F031
:10110000DFF95021206806E0CA684968206801F0CC
:10111000E8F96021206801F0D3F8CEE7CA68496891
:10112000206801F0CDF940212068F4E722680146EB
:101130001046F0E77047704770472DE9F0410446CC
:101140000068C66805694FF00007A90715D5B10703
:1011500013D5F91E0161012020772068806980077E
:1011600002D0D4F8901005E0D4F8981020468847B3
:10117000D4F89C10204688472777680718D5700751
:1011800016D521686FF004000861022020772068DE
:10119000806910F4407F02D0D4F8901005E0D4F8B4
:1011A000981020468847D4F89C1020468847277717
:1011B000280717D5300715D521686FF0080008619A
:1011C000042020772068C069800702D0D4F89010EE
:1011D00005E0D4F8981020468847D4F89C102046A3
:1011E00088472777E80618D5F00616D521686FF0EE
:1011F00010000861082020772068C06910F4407F43
:1012000002D0D4F8901005E0D4F898102046884712
:10121000D4F89C10204688472777E80709D0F007C4
:1012200007D021686FF001000861D4F880102046D3
:101230008847280609D5300607D521686FF0800059
:101240000861D4F8B01020468847680609D57006B2
:1012500007D521686FF040000861D4F88810204657
:101260008847A8060BD5B00609D521686FF0200085
:1012700008612046D4F8A810BDE8F0410847BDE851
:10128000F081000070B586B0044614216846FFF76F
:1012900062F824683C4E00223C49022301203C4D68
:1012A000B4420CD10C6844F010040C60096801F0E1
:1012B00010010591C1020091CDE901325EE0B4F167
:1012C000804F11D0334E3448B44221D10C6844F0E1
:1012D00001040C60096801F0010105918021009171
:1012E000CDE90132694624E00C6844F002040C6048
:1012F000096801F00201059108210091CDE9013250
:10130000CDE9032069462548FFF7E8F806B070BD2F
:10131000234EB44210D1086840F008000860086805
:10132000694600F00800059060140090CDE9013294
:101330001C48CDE90323E7E71B4EB4420ED10C68ED
:1013400044F001040C6009680093CDE9013201F01A
:101350000101CDE9043103926946D5E7134884427F
:10136000D4D1086840F010000860086800F0100050
:10137000059020200090CDE901320320CDE9032023
:1013800069462846C0E700000000014030380240AE
:10139000001002400004004000000240000402402F
:1013A00000080040000C0240000C004000400140DA
:1013B00070B5044690F83C00002501280FD00120AC
:1013C00084F83C006AB1042A0FD0082A11D00C2AF4
:1013D00013D00125002084F83C00284670BD02206F
:1013E00070BD206800F074FFF4E7206800F0A0FFF3
:1013F000F0E7206800F0D2FFECE7206801F002F887
:10140000E8E7704710B5040003D094F83D0010B130
:101410000EE0012010BD002084F83C00204601F0C1
:1014200019F8A06D08B91148A06501462046884703
:10143000022084F83D00211D206800F0CBFE012031
:1014400084F8460084F83E0084F83F0084F84000A9
:1014500084F8410084F8420084F8430084F8440092
:1014600084F8450084F83D00002010BD7114000888
:10147000704770B5044690F83C0000260D460128E0
:101480000FD0012084F83C006AB1042A1DD0082A3C
:101490002FD00C2A3FD00126002084F83C00304693
:1014A00070BD022070BD206800F012FF20688169C5
:1014B00041F0080181612068816921F004018161A6
:1014C000206881692A69114311E0206800F030FF2B
:1014D0002068816941F4006181612068816921F49B
:1014E00080618161206881692A6941EA0221816104
:1014F000D2E7206800F052FF2068C16941F008017E
:10150000C1612068C16921F00401C1612068C1691D
:101510002A69114311E0206800F074FF2068C16956
:1015200041F40061C1612068C16921F48061C16139
:101530002068C1692A6941EA0221C161ACE7000063
:1015400010B5040003D094F83D0010B10EE0012066
:1015500010BD002084F83C00204600F07BFF206E88
:1015600008B911482066014620468847022084F8C1
:101570003D00211D206800F02DFE012084F846006A
:1015800084F83E0084F83F0084F8400084F841006D
:1015900084F8420084F8430084F8440084F845004D
:1015A00084F83D00002010BDAD150008704770475D
:1015B0007047704770477047704770477047704773
:1015C00070477047F8B5016804460868CA684B69F7
:1015D00010F00F0F4FF0000556D003F0010602F493
:1015E0009077374361D0C10705D0D10503D5616C31
:1015F00041F001016164410705D5D90703D0616C51
:1016000041F002016164810705D5D90703D0616CFF
:1016100041F004016164010707D502F02001314364
:1016200003D0616C41F008016164616C00293BD01A
:10163000800604D5900602D5204600F0B7FF20684A
:101640004069616CC0F38010090700D440B32046A4
:1016500000F05FFF2068406940061ED52068143006
:1016600050E8001F21F0400140E80012002AF5D1A7
:10167000E06B90B16E490165E06BFEF71DFF00283D
:1016800012D0E06B016DCFE083060ED593060CD52A
:101690002046BDE8F84000F089BF2046A16DC3E0B8
:1016A000A16D204688476564F8BD266B2023012E76
:1016B0007FD1C6067DD5D6067BD5086848680090E0
:1016C00048694FF00206400641D5E16B0868406862
:1016D0000004000CE8D0A28D8242E5D9E085C869FB
:1016E000B0F5807F2DD021680C3151E8000F20F437
:1016F000807041E80002002AF5D12068143050E8DB
:10170000001F21F0010140E80012002AF5D12168F4
:10171000143151E8000F20F0400041E80002002A97
:10172000F5D184F84230256320680C3050E8001F62
:1017300021F0100140E80012002AF5D1E06BFEF71D
:1017400072FE6663A08DE18D401A81B22AE0A08D01
:10175000E18D401A81B2E08D0028A5D00029A3D0E8
:1017600020680C3050E8002F22F4907240E80027E7
:10177000002FF5D12068143050E8002F22F001022C
:1017800040E80027002FF5D184F842302563206817
:101790000C3050E8002F22F0100240E80023002B0C
:1017A000F5D16663E26E01B02046BDE8F040104717
:1017B000FFE705062CD515062AD594F84100212807
:1017C0007FF472AFA068B0F5805F01D12069B0B13D
:1017D000206A411C2162216800784860E08C401E2C
:1017E0000004000CE084EBD12068C16821F0800186
:1017F000C1602068C16841F04001C160F8BD206A45
:101800000088C0F308004860206A801C2062E5E779
:101810004006F3D55006F1D5CA68204622F04002B2
:10182000CA6084F84130E16C01B0BDE8F04008477F
:101830000725000870B5040004D094F84100002585
:1018400010B10DE0012070BD84F84050204600F03A
:1018500087FE206F08B91448206701462046884754
:10186000242084F841002068C16821F40051C1603F
:10187000204600F0FDFE2068016921F490410161DD
:101880002068416921F02A0141612068C16841F462
:101890000051C1606564202084F8410084F8420052
:1018A0006563002070BD0000AD180008F0B587B07A
:1018B000044614216846FEF74EFD3D4B2768002282
:1018C0003C490224032507263B489F4221D1394B3E
:1018D00014331F6847F010071F601B6803F01003E4
:1018E00005930B6843F001030B60096802AB01F03C
:1018F000010105916902CDE9001483E8640069469D
:10190000FEF7ECFD002211462520FEF757FF2520AB
:1019100024E0284BDFF8A4C01033674522D11F68AC
:1019200047F400371F601B6803F4003305930B680E
:1019300043F001030B60096802AF01F0010105915A
:101940000C21CDE9001487E864006946FEF7C6FD66
:10195000002211462620FEF731FF2620FEF720FF49
:1019600007B0F0BD16488742FAD1186840F48020CD
:101970001860186800F480200590086840F00200A4
:101980000860086802AF00F0020005904FF4406064
:10199000CDE9000487E8640069460A48FEF79EFD29
:1019A000002211462720FEF709FF2720D6E7000076
:1019B0000010014030380240000002400044004066
:1019C000004800400004024070477047704770476D
:1019D000FEE700002DE9F04101251B4C1B4E1C4F7A
:1019E000012813D0207858B110213046FEF76EFE42
:1019F00001280DD001213846FEF768FE012807D0E6
:101A000010213046FEF762FEB0B11BE02570EBE717
:101A10000A2000F0E1FE0020207010213046FEF781
:101A200055FE012806D001213846FEF74FFE012859
:101A300008D10420BDE8F08101213846FEF746FEBA
:101A400000B925700020F5E71000002000100240CA
:101A500000000240114810B5016886B041F0200135
:101A6000016000680E4C00F0200005904FF4C0604B
:101A700000900120019002900320039069462046C7
:101A8000FEF72CFD012251022046FEF724FE012222
:101A900091022046FEF71FFE06B010BD303802400E
:101AA000001402402DE9F04F87B014216846FEF77C
:101AB00052FC69480024016841F01001016001688E
:101AC00001F010010591016841F0200101600168F9
:101AD00001F020010591016841F080010160016879
:101AE00001F080010591016841F004010160016885
:101AF00001F004010591016841F0010101600168F4
:101B000001F001010591016841F0020101600168E5
:101B100001F002010591016841F0080101600168CE
:101B200001F008010591016841F040010160006881
:101B300041F20C4500F0400005900022294647483C
:101B4000FEF7C9FD464F4FF4C066012231463846C4
:101B5000FEF7C1FDDFF80CA1002230215046FEF750
:101B6000BAFDDFF804B1002206215846FEF7B3FDA6
:101B70004FF4C058002241463C48FEF7ACFD00221D
:101B800080213B48FEF7A7FD4FF4F049002249466B
:101B90003848FEF7A0FD00950125CDE901546946BE
:101BA0002E480394FEF79AFC1020CDE90004694604
:101BB0002A480294FEF792FCCDE900650226CDE9A1
:101BC000024669463846FEF789FC032700976946B6
:101BD0002748CDE90145FEF781FCCDE9005469466F
:101BE00050460296FEF77AFC30200090CDE9015471
:101BF000694650460394FEF771FC06200090CDE93B
:101C00000154694658460394FEF768FCCDF80080FD
:101C1000CDE90154694615480394FEF75FFC802026
:101C20000090CDE90154694611480394FEF756FC33
:101C3000CDF80090CDE9015469460E480394FEF7B3
:101C40004DFC009769460548CDE90145FEF746FC85
:101C500007B0BDE8F08F00003038024000100240AD
:101C6000001402400000024000040240000C024048
:101C7000000802400018024010B596B000240F94EE
:101C800010941194129413941C2108A81494FEF734
:101C900062FB20216846FEF75EFB27482549C0E924
:101CA00000144FF6FF71C0E9024104614461846190
:101CB000FFF702F908B1FEF7B4FB4FF480500F9024
:101CC0000FA91D48FFF7C8F908B1FEF7AAFB1A488B
:101CD000FFF798FB08B1FEF7A4FB139413A916486D
:101CE0001494FFF7A1F808B1FEF79BFB0894099440
:101CF0000A940B940C940D94042208A90E480E9497
:101D0000FFF756FB08B1FEF78CFB00944FF4005030
:101D1000CDE904400294019403946946064807946F
:101D2000FFF757F808B1FEF77CFB0348FFF7AAFA64
:101D300016B010BD000001401800002010B58EB094
:101D400000240794089409940A940B941C21684673
:101D50000C94FEF700FB1C484FF08041C0E90014D2
:101D6000611EC0E9024104618461FFF7A5F808B172
:101D7000FEF757FB4FF48050079007A91248FFF772
:101D80006BF908B1FEF74DFB0F48FFF73BFB08B1BD
:101D9000FEF747FB0B940BA90B480C94FFF744F894
:101DA00008B1FEF73EFB00940194029404226946B8
:101DB00005480494FFF7FCFA08B1FEF732FB02482D
:101DC000FFF760FA0EB010BDCC00002010B58EB049
:101DD00000240794089409940A940B941C216846E3
:101DE0000C94FEF7B8FA1D481B49C0E900144FF6E1
:101DF000FF71C0E9024104618461FFF75DF808B139
:101E0000FEF70FFB4FF48050079007A91348FFF728
:101E100023F908B1FEF705FB1048FFF7F3FA08B104
:101E2000FEF7FFFA0B940BA90C480C94FEF7FCFF8D
:101E300008B1FEF7F6FA0094019402940422694670
:101E400006480494FFF7B4FA08B1FEF7EAFA03482B
:101E5000FFF718FA0EB010BD00040040800100200A
:101E600010B58EB000240794089409940A940B943A
:101E70001C2168460C94FEF76EFA1D481B49C0E908
:101E800000144FF6FF71C0E9024104618461FFF75D
:101E900013F808B1FEF7C5FA4FF48050079007A970
:101EA0001348FFF7D9F808B1FEF7BBFA1048FFF75F
:101EB000A9FA08B1FEF7B5FA0B940BA90C480C94DB
:101EC000FEF7B2FF08B1FEF7ACFA00940194029459
:101ED0000422694606480494FFF76AFA08B1FEF73F
:101EE000A0FA0348FFF7CEF90EB010BD000800407D
:101EF0003402002010B58EB0002407940894099491
:101F00000A940B941C2168460C94FEF724FA1D4891
:101F10001B49C0E90014611EC0E9024104618461EB
:101F2000FEF7CAFF08B1FEF77CFA4FF48050079025
:101F300007A91448FFF790F808B1FEF772FA1148A4
:101F4000FFF760FA08B1FEF76CFA0B940BA90D4885
:101F50000C94FEF769FF08B1FEF763FA0094019450
:101F600002940422694607480494FFF721FA08B155
:101F7000FEF757FA0348FFF785F90EB010BD0000D1
:101F8000000C0040E802002010B58CB0002407943B
:101F9000089409941C2168460A94FEF7DCF9194854
:101FA0001749C0E900144FF6FF71C0E9024104610E
:101FB0008461FEF781FF08B1FEF733FA4FF48050D9
:101FC000079007A90F48FFF747F808B1FEF729FA6D
:101FD0000C48FFF7B5FA08B1FEF723FA6020CDE907
:101FE000000402940022694606480494FFF741FA6F
:101FF00008B1FEF716FA0348FFF744F90CB010BD1C
:10200000004001409C0300200C4810B50A490160C3
:102010004FF4E1314160002181600C22C160C0E9D0
:1020200004128161C161FFF705FC002803D0BDE8FF
:102030001040FEF7F6B910BD00100140500400201A
:102040000C4810B50A4901604FF4E13141600021AC
:1020500081600C22C160C0E904128161C161FFF797
:10206000E9FB002803D0BDE81040FEF7DAB910BD47
:1020700000440040C80400200C4810B50A49016023
:102080004FF4E1314160002181600C22C160C0E960
:1020900004128161C161FFF7CDFB002803D0BDE8C8
:1020A0001040FEF7BEB910BD0048004040050020BA
:1020B000FEE7FEF7A7FCFEE770477047FEF716BB8A
:1020C00030B593B030216846FEF745F914210CA8CD
:1020D000FEF741F91D480025016841F0805101607B
:1020E000006800F0805011901948016841F4804167
:1020F00001600068022400F48040119001200090EB
:10210000000401908001CDE9064008AA0420A8211E
:1021100082E813000B906846FEF782FC08B172B6A5
:10212000FEE70CA90F2081E831004FF4A0500F907A
:102130004FF48050109005210CA8FEF773FB08B1F6
:1021400072B6FEE7FEF708FC13B030BD403802401F
:10215000007000400248016841F47001016070475E
:1021600088ED00E010B50448FEF7E7FFBDE8104039
:102170000248FEF7E2BF0000180000209C03002088
:102180000148FEF7DABF0000180000200148FEF702
:10219000D4BF0000180000200148FEF7CEBF0000A9
:1021A000180000200148FEF7C8BF0000CC00002046
:1021B0000148FEF7C2BF0000800100200148FEF781
:1021C000BCBF0000340200200148FEF7B6BF00008B
:1021D000E8020020F0B50268294C2A4D2A4E2B4F08
:1021E0002B4B4FF0804CA04209D0604507D0A8424D
:1021F00005D0B04203D0B84201D0984204D122F0B9
:10220000700E4A6842EA0E02A0421BD0604519D007
:10221000A84217D0B04215D0B84213D0984211D07E
:102220001C4DA8420ED01C4DA8420BD01B4DA842FD
:1022300008D01B4DA84205D01A4DA84202D01A4D15
:10224000A84203D122F44075CA682A434D6922F09E
:1022500080022A4302608A68C2620A688262A042DF
:1022600001D0984201D109690163012141610169ED
:10227000C90703D0016921F001010161F0BD00002F
:10228000000001400004004000080040000C004035
:10229000000401400040014000440140004801406A
:1022A00000180040001C00400020004010B5846869
:1022B00042EA032224F47F440A432243826010BD91
:1022C000826822F070020A4342F007018160704781
:1022D000F0B5036A026A22F0010202624268846970
:1022E000124E24F073050C682C4323F002058B6812
:1022F0002B430D4DA84201D0B04205D123F0080771
:10230000CB683B4323F00403A84201D0B04205D17F
:102310004D6922F4407215438A692A434260846100
:10232000496841630362F0BD0000014000040140C0
:10233000F0B5026A036A23F01003036243688469FC
:102340000D6824F4E64444EA05248D6822F0200256
:1023500042EA05120F4D104EA84201D0B04206D1FC
:10236000CF6822F0800242EA071222F04002A8421F
:1023700001D0B04207D14D6923F4406343EA85039D
:102380008D6943EA85034360846149688163026221
:10239000F0BD00000000014000040140F0B5026AF9
:1023A000036A23F4807303624368C46922F40072F1
:1023B00024F073050C68124E2C438D6842EA052206
:1023C0000E4DA84201D0B04206D1CF6822F400627F
:1023D00042EA072222F48062A84201D0B04207D12B
:1023E0004D6923F4405343EA05138D6943EA05130D
:1023F0004360C4614968C1630262F0BD00000140EE
:102400000004014030B5046A026A22F4805202627C
:102410004268C3690D6823F4E64343EA05238D68E7
:1024200024F4005444EA0534084DA84202D0084D73
:10243000A84204D14D6922F4804242EA85124260EA
:10244000C36149680164046230BD000000000140BE
:10245000000401400D4940F8801F0D4941600D49BD
:1024600081600D49C1600D4901610D4941610D490E
:1024700081610D49C1610D4901620D4941620D49FA
:1024800081620D49C1620D4901637047B3150008AF
:10249000B5150008B7150008B91500083711000870
:1024A0003911000803140008AF150008B115000821
:1024B00035110008CF0D0008D10D0008CD0D000822
:1024C00010B5036A046A24F001040462846924F0EC
:1024D000F00444EA021423F00A020A43846102620F
:1024E00010BD10B5036A046A24F010040462846904
:1024F00023F0A00324F4704444EA023243EA0111B9
:102500008261016210BD806B0021C185C184816D33
:10251000084701680C3151E8002F22F4907241E81D
:102520000023002BF5D10168143151E8002F22F06F
:10253000010241E80023002BF5D1016B012909D1EB
:1025400001680C3151E8002F22F0100241E800230D
:10255000002BF5D1202180F8421000210163704743
:10256000094981640949C16409490165094941650D
:10257000094981650949C1650949016609494166F9
:102580000949C16670470000CF190008CD1900083D
:10259000CB190008C9190008C3150008BD150008AB
:1025A000C1150008BF150008BB15000808B590F854
:1025B0004210222901D0022008BD82684FF48053C6
:1025C0009A4201D1016921B1816A9A421BD04AB174
:1025D0000AE00268816A5268C2F308020A80816ACE
:1025E000891C08E0026972B10268526802F07F0239
:1025F0000A70816A491C8162C18D491E0904090C57
:10260000C18503D01BE002685268F1E70168CA681F
:1026100022F02002CA600168CA6822F48072CA608F
:1026200001684A6922F001024A61202180F84210C3
:1026300000214163026B012A03D0416D88470020CD
:1026400008BD016301680C3151E8002F22F010022F
:1026500041E80023002BF5D101680A68D20602D5B3
:102660000A6849680091C26E818D9047E7E70000D3
:1026700070B5044600680169E26821F440511143D5
:1026800001612169A068E269084361691143084357
:102690002168CA6849F20C639A430243CA60206801
:1026A0004169A26921F440711143416131492068B7
:1026B000884202D03049884202D1FEF763F901E036
:1026C000FEF750F9E2690023192164253226B2F59C
:1026D000004F626828D0A0FB0101930F9200FDF724
:1026E000C3FD0146B0FBF5F06FF01802504301EB5B
:1026F000800006EB0010B0FBF5F000F0F002B1FB3B
:10270000F5F002EB0012B1FBF5F06FF0180358433F
:1027100001EB800006EB0010B0FBF5F000F00F00BD
:1027200021681044886070BDA0FB010192185B41D4
:10273000FDF79AFD0146B0FBF5F00201B1FBF5F0A3
:102740006FF01803584301EB800006EBC000B0FBAC
:10275000F5F000F0F80002EB4002B1FBF5F0584351
:1027600001EB800006EBC000B0FBF5F000F00700C5
:10277000D6E7000000100140001401400148FEF7B8
:1027800021BF0000500400200148FEF71BBF0000DD
:10279000C80400200148FEF715BF000040050020D6
:1027A000FEE70907090E002804DB00F1E02080F8AD
:1027B0000014704700F00F0000F1E02080F8141DB5
:1027C0007047000010B504460420FEF7DFFA014808
:1027D000046010BD1400002070B5054600244FF4BD
:1027E0007A7603E0304600F005F8641CAC42F9D379
:1027F00070BD000070B54FF0E02400226569094902
:10280000A36909684843A1699942FCD002D2A3EBAD
:10281000010302E0A5EB010633441A440B46824251
:10282000F1D370BD14000020FDF768FFFFF748FCEE
:10283000FFF738F9FFF720FAFFF780FAFFF7C6FA3B
:10284000FFF70EFBFFF756FBFFF79EFBFFF7DCFBE6
:10285000FFF7F6FBFFF710FCFFF7FCF8A820FFF7E7
:10286000B1FFFFF7F7F8134C4FF4007725154FF43D
:10287000FA760020FFF7AEF80128FAD10022394697
:102880002046FDF728FF012229462046FDF723FFB9
:102890003046FFF7A1FF012239462046FDF71BFF16
:1028A000002229462046FDF716FF3046FFF794FF29
:1028B000DFE70000001402404FF04070E1EE100A24
:1028C000704700000000000000000102030406073A
:1028D000080900000000010203040000FC280008B1
:1028E0000000002018000000C4010008142900089E
:1028F00018000020000C0000E001000801000000AA
:1029000010000000000000000024F400010000009E
:0429100000000000C3
:040000050800018965
:00000001FF
